:020000040000FA
:1000000028280000B0006E30B100000000000000A1
:10001000000000000000B10B0528B00B0328080009
:100020000000B601053001201F150000000000008F
:100030001F1917281E08B6001E20080000001E30D9
:100040003602031C08141F3036020318081008007B
:100050000000830103138316FF3085000030860003
:10006000FC308700F8308800EF3089000D309F00A9
:100070008312860100308600870181309F001020A6
:020080003C281A
:040082000034003412
:02400E00F13F80
:00000001FF
