:020000040000FA
:020000002928AD
:040002000034003492
:06000A00FF30B000FF30E2
:10001000B100300B0928310B09280800000000004E
:10002000B60105201F15000000001F1915281E0825
:10003000B6001F101C200800000000000000000097
:1000400025303602B200321C0814071000000000F0
:1000500008000000830103138316FF308500003081
:100060008600FF308700FF308800EF308900C730FE
:100070009F008312860100308600870181309F0037
:040080000E203D28E9
:00000001FF
